{
  "contractName": "LoginContract",
  "abi": [
    {
      "anonymous": false,
      "inputs": [
        {
          "indexed": true,
          "name": "user",
          "type": "address"
        },
        {
          "indexed": false,
          "name": "time",
          "type": "uint256"
        },
        {
          "indexed": false,
          "name": "logined",
          "type": "bool"
        }
      ],
      "name": "loginInfo",
      "type": "event",
      "signature": "0x8ba87b04e68f60a2df788386b93949be5709ed1f58f4ab100178cbaa1f5abaa8"
    },
    {
      "constant": false,
      "inputs": [
        {
          "name": "_password",
          "type": "string"
        },
        {
          "name": "fr1",
          "type": "address"
        },
        {
          "name": "fr2",
          "type": "address"
        },
        {
          "name": "fr3",
          "type": "address"
        }
      ],
      "name": "register",
      "outputs": [],
      "payable": false,
      "stateMutability": "nonpayable",
      "type": "function",
      "signature": "0xe1b8bcdb"
    },
    {
      "constant": false,
      "inputs": [
        {
          "name": "_password",
          "type": "string"
        }
      ],
      "name": "login",
      "outputs": [],
      "payable": false,
      "stateMutability": "nonpayable",
      "type": "function",
      "signature": "0x3a7d280c"
    },
    {
      "constant": false,
      "inputs": [],
      "name": "logout",
      "outputs": [],
      "payable": false,
      "stateMutability": "nonpayable",
      "type": "function",
      "signature": "0x1f3c99c3"
    },
    {
      "constant": false,
      "inputs": [],
      "name": "forgotPassword",
      "outputs": [],
      "payable": false,
      "stateMutability": "nonpayable",
      "type": "function",
      "signature": "0x574265df"
    },
    {
      "constant": false,
      "inputs": [
        {
          "name": "_passNum1",
          "type": "uint8"
        },
        {
          "name": "_passNum2",
          "type": "uint8"
        },
        {
          "name": "_passNum3",
          "type": "uint8"
        },
        {
          "name": "_password",
          "type": "string"
        }
      ],
      "name": "changePassword",
      "outputs": [],
      "payable": false,
      "stateMutability": "nonpayable",
      "type": "function",
      "signature": "0x18e66e6e"
    },
    {
      "constant": true,
      "inputs": [
        {
          "name": "forgetter",
          "type": "address"
        }
      ],
      "name": "showResetNumber",
      "outputs": [
        {
          "name": "",
          "type": "uint8"
        }
      ],
      "payable": false,
      "stateMutability": "view",
      "type": "function",
      "signature": "0x325b3180"
    }
  ],
  "bytecode": "0x608060405234801561001057600080fd5b50611497806100206000396000f3fe608060405234801561001057600080fd5b506004361061007f576000357c01000000000000000000000000000000000000000000000000000000009004806318e66e6e146100845780631f3c99c314610124578063325b31801461012e5780633a7d280c1461018c578063574265df14610205578063e1b8bcdb1461020f575b600080fd5b6101226004803603608081101561009a57600080fd5b81019080803560ff169060200190929190803560ff169060200190929190803560ff169060200190929190803590602001906401000000008111156100de57600080fd5b8201836020820111156100f057600080fd5b8035906020019184600183028401116401000000008311171561011257600080fd5b90919293919293905050506102e8565b005b61012c610810565b005b6101706004803603602081101561014457600080fd5b81019080803573ffffffffffffffffffffffffffffffffffffffff169060200190929190505050610873565b604051808260ff1660ff16815260200191505060405180910390f35b610203600480360360208110156101a257600080fd5b81019080803590602001906401000000008111156101bf57600080fd5b8201836020820111156101d157600080fd5b803590602001918460018302840111640100000000831117156101f357600080fd5b9091929391929390505050610bc1565b005b61020d610d86565b005b6102e66004803603608081101561022557600080fd5b810190808035906020019064010000000081111561024257600080fd5b82018360208201111561025457600080fd5b8035906020019184600183028401116401000000008311171561027657600080fd5b9091929391929390803573ffffffffffffffffffffffffffffffffffffffff169060200190929190803573ffffffffffffffffffffffffffffffffffffffff169060200190929190803573ffffffffffffffffffffffffffffffffffffffff1690602001909291905050506110c2565b005b60006001905060008090505b6003811015610386576000600260003373ffffffffffffffffffffffffffffffffffffffff1673ffffffffffffffffffffffffffffffffffffffff1681526020019081526020016000208281548110151561034b57fe5b90600052602060002090602091828204019190069054906101000a900460ff1660ff16141561037957600091505b80806001019150506102f4565b508015156103fc576040517f08c379a00000000000000000000000000000000000000000000000000000000081526004018080602001828103825260098152602001807f7a65726f636865636b000000000000000000000000000000000000000000000081525060200191505060405180910390fd5b60008660ff161415151561040f57600080fd5b60008560ff161415151561042257600080fd5b60008460ff161415151561043557600080fd5b600080905060008790506000879050600087905060008090505b6003811015610601578360ff16600260003373ffffffffffffffffffffffffffffffffffffffff1673ffffffffffffffffffffffffffffffffffffffff168152602001908152602001600020828154811015156104a857fe5b90600052602060002090602091828204019190069054906101000a900460ff1660ff1614156104e2578480600101955050600093506105f4565b8260ff16600260003373ffffffffffffffffffffffffffffffffffffffff1673ffffffffffffffffffffffffffffffffffffffff1681526020019081526020016000208281548110151561053257fe5b90600052602060002090602091828204019190069054906101000a900460ff1660ff16141561056c578480600101955050600092506105f3565b8160ff16600260003373ffffffffffffffffffffffffffffffffffffffff1673ffffffffffffffffffffffffffffffffffffffff168152602001908152602001600020828154811015156105bc57fe5b90600052602060002090602091828204019190069054906101000a900460ff1660ff1614156105f2578480600101955050600091505b5b5b808060010191505061044f565b5060028460ff161015151561067e576040517f08c379a00000000000000000000000000000000000000000000000000000000081526004018080602001828103825260128152602001807f646f206e6f74206d6565742032206f662033000000000000000000000000000081525060200191505060405180910390fd5b6000600288886040516020018083838082843780830192505050925050506040516020818303038152906040526040518082805190602001908083835b6020831015156106e057805182526020820191506020810190506020830392506106bb565b6001836020036101000a038019825116818451168082178552505050505050905001915050602060405180830381855afa158015610722573d6000803e3d6000fd5b5050506040513d602081101561073757600080fd5b81019080805190602001909291905050509050806000803373ffffffffffffffffffffffffffffffffffffffff1673ffffffffffffffffffffffffffffffffffffffff16815260200190815260200160002081905550606060405190810160405280600060ff168152602001600060ff168152602001600060ff16815250600260003373ffffffffffffffffffffffffffffffffffffffff1673ffffffffffffffffffffffffffffffffffffffff1681526020019081526020016000209060036108029291906112c7565b505050505050505050505050565b60004290503373ffffffffffffffffffffffffffffffffffffffff167f8ba87b04e68f60a2df788386b93949be5709ed1f58f4ab100178cbaa1f5abaa882600060405180838152602001821515151581526020019250505060405180910390a250565b60003373ffffffffffffffffffffffffffffffffffffffff16600160008473ffffffffffffffffffffffffffffffffffffffff1673ffffffffffffffffffffffffffffffffffffffff16815260200190815260200160002060008154811015156108d957fe5b9060005260206000200160009054906101000a900473ffffffffffffffffffffffffffffffffffffffff1673ffffffffffffffffffffffffffffffffffffffff1614806109c857503373ffffffffffffffffffffffffffffffffffffffff16600160008473ffffffffffffffffffffffffffffffffffffffff1673ffffffffffffffffffffffffffffffffffffffff168152602001908152602001600020600181548110151561098557fe5b9060005260206000200160009054906101000a900473ffffffffffffffffffffffffffffffffffffffff1673ffffffffffffffffffffffffffffffffffffffff16145b80610a7557503373ffffffffffffffffffffffffffffffffffffffff16600160008473ffffffffffffffffffffffffffffffffffffffff1673ffffffffffffffffffffffffffffffffffffffff1681526020019081526020016000206002815481101515610a3257fe5b9060005260206000200160009054906101000a900473ffffffffffffffffffffffffffffffffffffffff1673ffffffffffffffffffffffffffffffffffffffff16145b1515610a8057600080fd5b60008090505b6003811015610bba57600160008473ffffffffffffffffffffffffffffffffffffffff1673ffffffffffffffffffffffffffffffffffffffff16815260200190815260200160002081815481101515610adb57fe5b9060005260206000200160009054906101000a900473ffffffffffffffffffffffffffffffffffffffff1673ffffffffffffffffffffffffffffffffffffffff163373ffffffffffffffffffffffffffffffffffffffff161415610bad57600260008473ffffffffffffffffffffffffffffffffffffffff1673ffffffffffffffffffffffffffffffffffffffff16815260200190815260200160002081815481101515610b8557fe5b90600052602060002090602091828204019190069054906101000a900460ff16915050610bbc565b8080600101915050610a86565b505b919050565b6000600283836040516020018083838082843780830192505050925050506040516020818303038152906040526040518082805190602001908083835b602083101515610c235780518252602082019150602081019050602083039250610bfe565b6001836020036101000a038019825116818451168082178552505050505050905001915050602060405180830381855afa158015610c65573d6000803e3d6000fd5b5050506040513d6020811015610c7a57600080fd5b810190808051906020019092919050505090506000803373ffffffffffffffffffffffffffffffffffffffff1673ffffffffffffffffffffffffffffffffffffffff1681526020019081526020016000205481141515610cd957600080fd5b6000803373ffffffffffffffffffffffffffffffffffffffff1673ffffffffffffffffffffffffffffffffffffffff16815260200190815260200160002054811415610d815760004290503373ffffffffffffffffffffffffffffffffffffffff167f8ba87b04e68f60a2df788386b93949be5709ed1f58f4ab100178cbaa1f5abaa882600160405180838152602001821515151581526020019250505060405180910390a2505b505050565b60006001606342600160003373ffffffffffffffffffffffffffffffffffffffff1673ffffffffffffffffffffffffffffffffffffffff1681526020019081526020016000206000815481101515610dda57fe5b9060005260206000200160009054906101000a900473ffffffffffffffffffffffffffffffffffffffff16604051602001808381526020018273ffffffffffffffffffffffffffffffffffffffff1673ffffffffffffffffffffffffffffffffffffffff168152602001925050506040516020818303038152906040528051906020012060019004811515610e6b57fe5b0601905060006001606342600160003373ffffffffffffffffffffffffffffffffffffffff1673ffffffffffffffffffffffffffffffffffffffff1681526020019081526020016000206001815481101515610ec357fe5b9060005260206000200160009054906101000a900473ffffffffffffffffffffffffffffffffffffffff16604051602001808381526020018273ffffffffffffffffffffffffffffffffffffffff1673ffffffffffffffffffffffffffffffffffffffff168152602001925050506040516020818303038152906040528051906020012060019004811515610f5457fe5b0601905060006001606342600160003373ffffffffffffffffffffffffffffffffffffffff1673ffffffffffffffffffffffffffffffffffffffff1681526020019081526020016000206002815481101515610fac57fe5b9060005260206000200160009054906101000a900473ffffffffffffffffffffffffffffffffffffffff16604051602001808381526020018273ffffffffffffffffffffffffffffffffffffffff1673ffffffffffffffffffffffffffffffffffffffff16815260200192505050604051602081830303815290604052805190602001206001900481151561103d57fe5b060190506060604051908101604052808460ff1660ff1681526020018360ff1660ff1681526020018260ff1660ff16815250600260003373ffffffffffffffffffffffffffffffffffffffff1673ffffffffffffffffffffffffffffffffffffffff1681526020019081526020016000209060036110bc9291906112c7565b50505050565b6000600286866040516020018083838082843780830192505050925050506040516020818303038152906040526040518082805190602001908083835b60208310151561112457805182526020820191506020810190506020830392506110ff565b6001836020036101000a038019825116818451168082178552505050505050905001915050602060405180830381855afa158015611166573d6000803e3d6000fd5b5050506040513d602081101561117b57600080fd5b81019080805190602001909291905050509050806000803373ffffffffffffffffffffffffffffffffffffffff1673ffffffffffffffffffffffffffffffffffffffff168152602001908152602001600020819055506060604051908101604052808573ffffffffffffffffffffffffffffffffffffffff1673ffffffffffffffffffffffffffffffffffffffff1681526020018473ffffffffffffffffffffffffffffffffffffffff1673ffffffffffffffffffffffffffffffffffffffff1681526020018373ffffffffffffffffffffffffffffffffffffffff1673ffffffffffffffffffffffffffffffffffffffff16815250600160003373ffffffffffffffffffffffffffffffffffffffff1673ffffffffffffffffffffffffffffffffffffffff1681526020019081526020016000209060036112be92919061136e565b50505050505050565b82805482825590600052602060002090601f0160209004810192821561135d5791602002820160005b8382111561132e57835183826101000a81548160ff021916908360ff16021790555092602001926001016020816000010492830192600103026112f0565b801561135b5782816101000a81549060ff021916905560010160208160000104928301926001030261132e565b505b50905061136a91906113f8565b5090565b8280548282559060005260206000209081019282156113e7579160200282015b828111156113e65782518260006101000a81548173ffffffffffffffffffffffffffffffffffffffff021916908373ffffffffffffffffffffffffffffffffffffffff1602179055509160200191906001019061138e565b5b5090506113f49190611428565b5090565b61142591905b8082111561142157600081816101000a81549060ff0219169055506001016113fe565b5090565b90565b61146891905b8082111561146457600081816101000a81549073ffffffffffffffffffffffffffffffffffffffff02191690555060010161142e565b5090565b9056fea165627a7a72305820660b7ffd62d03ff4abcb742a0bd9366e71c48f6dc1e7af01c4b0d357f04649630029",
  "source": "pragma solidity ^0.5.2;\n\ncontract LoginContract {\n\n   mapping (address => bytes32) password;\n   mapping (address => address[]) friends;\n   mapping (address => uint8[]) resetNumber;\n\n   event loginInfo(address indexed user, uint time, bool logined);\n\n   function register(string calldata _password, address fr1, address fr2, address fr3) external  {\n       bytes32 pass = sha256(abi.encodePacked(_password));\n       password[msg.sender] = pass;\n       friends[msg.sender] = [fr1, fr2, fr3];\n   }\n\n   function login(string calldata _password) external  {\n       bytes32 pass = sha256(abi.encodePacked(_password));\n       require(pass == password[msg.sender]);\n       if (pass == password[msg.sender]) {\n           uint currentTime = block.timestamp;\n           emit loginInfo(msg.sender, currentTime, true);\n       }\n   }\n\n   function logout() external{\n       uint currentTime = block.timestamp;\n       emit loginInfo(msg.sender, currentTime, false);\n   }\n\n   function forgotPassword() external {\n       uint8 passNum1 = uint8(uint256(keccak256(abi.encode(block.timestamp, friends[msg.sender][0])))%99 + 1);\n       uint8 passNum2 = uint8(uint256(keccak256(abi.encode(block.timestamp, friends[msg.sender][1])))%99 + 1);\n       uint8 passNum3 = uint8(uint256(keccak256(abi.encode(block.timestamp, friends[msg.sender][2])))%99 + 1);\n\n       resetNumber[msg.sender] = [passNum1, passNum2, passNum3];\n   }\n\n   function changePassword(uint8 _passNum1, uint8 _passNum2, uint8 _passNum3, string calldata _password) external {\n       bool zeroCheck = true;\n       for (uint i = 0; i < 3; i++){\n           if(resetNumber[msg.sender][i] == 0){\n               zeroCheck = false;\n           }\n       }\n       require(zeroCheck, \"zerocheck\");\n       require(_passNum1 != 0);\n       require(_passNum2 != 0);\n       require(_passNum3 != 0);\n       \n       uint8 counter = 0;\n       uint8 num1 = _passNum1;\n       uint8 num2 = _passNum2;\n       uint8 num3 = _passNum3;\n       for (uint i = 0; i < 3; i++){\n           if (resetNumber[msg.sender][i] == num1){\n               counter++;\n               num1 = 0;\n           }else if (resetNumber[msg.sender][i] == num2){\n               counter++;\n               num2 = 0;\n           }else if (resetNumber[msg.sender][i] == num3){\n             counter++;\n             num3 = 0;\n           }\n       }\n       require(counter >= 2, \"do not meet 2 of 3\");\n       bytes32 pass = sha256(abi.encodePacked(_password));\n       password[msg.sender] = pass;\n       resetNumber[msg.sender] = [0, 0, 0];\n   }\n\n   function showResetNumber(address forgetter) external view returns(uint8){\n       require(\n           friends[forgetter][0] == msg.sender ||\n           friends[forgetter][1] == msg.sender ||\n           friends[forgetter][2] == msg.sender\n           );\n       for (uint i = 0; i < 3; i++){\n           if (msg.sender == friends[forgetter][i]){\n               return resetNumber[forgetter][i];\n           }\n       }\n   }\n\n\n\n}\n",
  "sourcePath": "/Users/akira/ethereum/dapps/LoginContract/contracts/LoginContract.sol",
  "compiler": {
    "name": "solc",
    "version": "0.5.2+commit.1df8f40c.Emscripten.clang"
  },
  "schemaVersion": "3.0.2",
  "updatedAt": "2019-05-12T07:49:25.572Z",
  "devdoc": {
    "methods": {}
  },
  "userdoc": {
    "methods": {}
  }
}